{
  "_format": "hh-sol-artifact-1",
  "contractName": "KRNLVerifier",
  "sourceName": "contracts/KRNLVerifier.sol",
  "abi": [
    {
      "inputs": [
        {
          "internalType": "address",
          "name": "_krnlNode",
          "type": "address"
        }
      ],
      "stateMutability": "nonpayable",
      "type": "constructor"
    },
    {
      "anonymous": false,
      "inputs": [
        {
          "indexed": true,
          "internalType": "address",
          "name": "oldNode",
          "type": "address"
        },
        {
          "indexed": true,
          "internalType": "address",
          "name": "newNode",
          "type": "address"
        }
      ],
      "name": "KRNLNodeUpdated",
      "type": "event"
    },
    {
      "anonymous": false,
      "inputs": [
        {
          "indexed": true,
          "internalType": "bytes32",
          "name": "proofHash",
          "type": "bytes32"
        },
        {
          "indexed": true,
          "internalType": "address",
          "name": "subject",
          "type": "address"
        },
        {
          "indexed": false,
          "internalType": "bool",
          "name": "verified",
          "type": "bool"
        },
        {
          "indexed": false,
          "internalType": "uint256",
          "name": "timestamp",
          "type": "uint256"
        }
      ],
      "name": "ProofVerified",
      "type": "event"
    },
    {
      "inputs": [
        {
          "internalType": "bytes",
          "name": "proof",
          "type": "bytes"
        }
      ],
      "name": "isProofUsed",
      "outputs": [
        {
          "internalType": "bool",
          "name": "",
          "type": "bool"
        }
      ],
      "stateMutability": "view",
      "type": "function"
    },
    {
      "inputs": [],
      "name": "krnlNode",
      "outputs": [
        {
          "internalType": "address",
          "name": "",
          "type": "address"
        }
      ],
      "stateMutability": "view",
      "type": "function"
    },
    {
      "inputs": [],
      "name": "owner",
      "outputs": [
        {
          "internalType": "address",
          "name": "",
          "type": "address"
        }
      ],
      "stateMutability": "view",
      "type": "function"
    },
    {
      "inputs": [
        {
          "internalType": "address",
          "name": "_krnlNode",
          "type": "address"
        }
      ],
      "name": "setKRNLNode",
      "outputs": [],
      "stateMutability": "nonpayable",
      "type": "function"
    },
    {
      "inputs": [
        {
          "internalType": "bytes32",
          "name": "",
          "type": "bytes32"
        }
      ],
      "name": "usedProofs",
      "outputs": [
        {
          "internalType": "bool",
          "name": "",
          "type": "bool"
        }
      ],
      "stateMutability": "view",
      "type": "function"
    },
    {
      "inputs": [
        {
          "internalType": "bytes",
          "name": "proof",
          "type": "bytes"
        },
        {
          "internalType": "address",
          "name": "subject",
          "type": "address"
        }
      ],
      "name": "verifyProof",
      "outputs": [
        {
          "internalType": "bool",
          "name": "",
          "type": "bool"
        }
      ],
      "stateMutability": "nonpayable",
      "type": "function"
    }
  ],
  "bytecode": "0x608060405234801561001057600080fd5b506040516105ba3803806105ba83398101604081905261002f9161005d565b600080546001600160a01b039092166001600160a01b0319928316179055600180549091163317905561008d565b60006020828403121561006f57600080fd5b81516001600160a01b038116811461008657600080fd5b9392505050565b61051e8061009c6000396000f3fe608060405234801561001057600080fd5b50600436106100625760003560e01c8063386332ea146100675780634b7926fe146100975780638da5cb5b146100ba578063a20e8908146100cd578063ab48c349146100e2578063c30a0f25146100f5575b600080fd5b60005461007a906001600160a01b031681565b6040516001600160a01b0390911681526020015b60405180910390f35b6100aa6100a5366004610407565b610118565b604051901515815260200161008e565b60015461007a906001600160a01b031681565b6100e06100db36600461045b565b61028e565b005b6100aa6100f036600461047d565b61036d565b6100aa6101033660046104bf565b60026020526000908152604090205460ff1681565b60008261015a5760405162461bcd60e51b815260206004820152600b60248201526a22b6b83a3c90383937b7b360a91b60448201526064015b60405180910390fd5b6001600160a01b0382166101a25760405162461bcd60e51b815260206004820152600f60248201526e125b9d985b1a59081cdd589a9958dd608a1b6044820152606401610151565b600084846040516101b49291906104d8565b604080519182900390912060008181526002602052919091205490915060ff16156102165760405162461bcd60e51b8152602060048201526012602482015271141c9bdbd988185b1c9958591e481d5cd95960721b6044820152606401610151565b60008181526002602052604090819020805460ff1916600190811790915590516001600160a01b0385169183917fd70445ae79bfa82bd8c52e90ca89940dff8279c6c39f91265be2f4ae43e4cae29161027b9142909115158252602082015260400190565b60405180910390a3506001949350505050565b6001546001600160a01b031633146102d55760405162461bcd60e51b815260206004820152600a60248201526927b7363c9037bbb732b960b11b6044820152606401610151565b6001600160a01b03811661031d5760405162461bcd60e51b815260206004820152600f60248201526e496e76616c6964206164647265737360881b6044820152606401610151565b600080546001600160a01b038381166001600160a01b0319831681178455604051919092169283917f265aa7e9fd954c43e0698c6cdd24d0442808692572e4ad0b34876256ffab4bef9190a35050565b60008083836040516103809291906104d8565b604080519182900390912060009081526002602052205460ff16949350505050565b60008083601f8401126103b457600080fd5b50813567ffffffffffffffff8111156103cc57600080fd5b6020830191508360208285010111156103e457600080fd5b9250929050565b80356001600160a01b038116811461040257600080fd5b919050565b60008060006040848603121561041c57600080fd5b833567ffffffffffffffff81111561043357600080fd5b61043f868287016103a2565b90945092506104529050602085016103eb565b90509250925092565b60006020828403121561046d57600080fd5b610476826103eb565b9392505050565b6000806020838503121561049057600080fd5b823567ffffffffffffffff8111156104a757600080fd5b6104b3858286016103a2565b90969095509350505050565b6000602082840312156104d157600080fd5b5035919050565b818382376000910190815291905056fea26469706673582212207024829b49c8f2640ad5fad0169f4bc121f38dafb7e94ca8a095e5f3e73d8fd464736f6c63430008140033",
  "linkReferences": {},
  "deployedLinkReferences": {}
}