{
  "_format": "hh-sol-artifact-1",
  "contractName": "AccessGrant",
  "sourceName": "contracts/AccessGrant.sol",
  "abi": [
    {
      "inputs": [
        {
          "internalType": "address",
          "name": "_accessControl",
          "type": "address"
        }
      ],
      "stateMutability": "nonpayable",
      "type": "constructor"
    },
    {
      "anonymous": false,
      "inputs": [
        {
          "indexed": true,
          "internalType": "uint256",
          "name": "grantId",
          "type": "uint256"
        },
        {
          "indexed": true,
          "internalType": "address",
          "name": "applicant",
          "type": "address"
        }
      ],
      "name": "ApplicationApproved",
      "type": "event"
    },
    {
      "anonymous": false,
      "inputs": [
        {
          "indexed": true,
          "internalType": "uint256",
          "name": "grantId",
          "type": "uint256"
        },
        {
          "indexed": true,
          "internalType": "address",
          "name": "applicant",
          "type": "address"
        }
      ],
      "name": "ApplicationRejected",
      "type": "event"
    },
    {
      "anonymous": false,
      "inputs": [
        {
          "indexed": true,
          "internalType": "uint256",
          "name": "grantId",
          "type": "uint256"
        },
        {
          "indexed": true,
          "internalType": "address",
          "name": "applicant",
          "type": "address"
        }
      ],
      "name": "ApplicationSubmitted",
      "type": "event"
    },
    {
      "anonymous": false,
      "inputs": [
        {
          "indexed": true,
          "internalType": "uint256",
          "name": "grantId",
          "type": "uint256"
        },
        {
          "indexed": true,
          "internalType": "address",
          "name": "ngo",
          "type": "address"
        },
        {
          "indexed": false,
          "internalType": "string",
          "name": "title",
          "type": "string"
        },
        {
          "indexed": false,
          "internalType": "uint256",
          "name": "amount",
          "type": "uint256"
        }
      ],
      "name": "GrantCreated",
      "type": "event"
    },
    {
      "inputs": [],
      "name": "accessControl",
      "outputs": [
        {
          "internalType": "contract NGOAccessControl",
          "name": "",
          "type": "address"
        }
      ],
      "stateMutability": "view",
      "type": "function"
    },
    {
      "inputs": [
        {
          "internalType": "uint256",
          "name": "grantId",
          "type": "uint256"
        },
        {
          "internalType": "string",
          "name": "proposal",
          "type": "string"
        },
        {
          "internalType": "uint256",
          "name": "requestedAmount",
          "type": "uint256"
        }
      ],
      "name": "applyForGrant",
      "outputs": [],
      "stateMutability": "nonpayable",
      "type": "function"
    },
    {
      "inputs": [
        {
          "internalType": "uint256",
          "name": "grantId",
          "type": "uint256"
        },
        {
          "internalType": "uint256",
          "name": "applicationIndex",
          "type": "uint256"
        }
      ],
      "name": "approveApplication",
      "outputs": [],
      "stateMutability": "nonpayable",
      "type": "function"
    },
    {
      "inputs": [
        {
          "internalType": "string",
          "name": "title",
          "type": "string"
        },
        {
          "internalType": "string",
          "name": "description",
          "type": "string"
        },
        {
          "internalType": "uint256",
          "name": "amount",
          "type": "uint256"
        },
        {
          "internalType": "uint256",
          "name": "duration",
          "type": "uint256"
        }
      ],
      "name": "createGrant",
      "outputs": [],
      "stateMutability": "nonpayable",
      "type": "function"
    },
    {
      "inputs": [
        {
          "internalType": "uint256",
          "name": "grantId",
          "type": "uint256"
        }
      ],
      "name": "getApplications",
      "outputs": [
        {
          "components": [
            {
              "internalType": "address",
              "name": "applicant",
              "type": "address"
            },
            {
              "internalType": "string",
              "name": "proposal",
              "type": "string"
            },
            {
              "internalType": "uint256",
              "name": "requestedAmount",
              "type": "uint256"
            },
            {
              "internalType": "bool",
              "name": "approved",
              "type": "bool"
            },
            {
              "internalType": "bool",
              "name": "rejected",
              "type": "bool"
            }
          ],
          "internalType": "struct AccessGrant.Application[]",
          "name": "",
          "type": "tuple[]"
        }
      ],
      "stateMutability": "view",
      "type": "function"
    },
    {
      "inputs": [],
      "name": "getGrants",
      "outputs": [
        {
          "components": [
            {
              "internalType": "uint256",
              "name": "id",
              "type": "uint256"
            },
            {
              "internalType": "address",
              "name": "ngo",
              "type": "address"
            },
            {
              "internalType": "string",
              "name": "title",
              "type": "string"
            },
            {
              "internalType": "string",
              "name": "description",
              "type": "string"
            },
            {
              "internalType": "uint256",
              "name": "amount",
              "type": "uint256"
            },
            {
              "internalType": "uint256",
              "name": "deadline",
              "type": "uint256"
            },
            {
              "internalType": "bool",
              "name": "isActive",
              "type": "bool"
            },
            {
              "internalType": "uint256",
              "name": "totalApplications",
              "type": "uint256"
            }
          ],
          "internalType": "struct AccessGrant.Grant[]",
          "name": "",
          "type": "tuple[]"
        }
      ],
      "stateMutability": "view",
      "type": "function"
    },
    {
      "inputs": [
        {
          "internalType": "uint256",
          "name": "",
          "type": "uint256"
        },
        {
          "internalType": "uint256",
          "name": "",
          "type": "uint256"
        }
      ],
      "name": "grantApplications",
      "outputs": [
        {
          "internalType": "address",
          "name": "applicant",
          "type": "address"
        },
        {
          "internalType": "string",
          "name": "proposal",
          "type": "string"
        },
        {
          "internalType": "uint256",
          "name": "requestedAmount",
          "type": "uint256"
        },
        {
          "internalType": "bool",
          "name": "approved",
          "type": "bool"
        },
        {
          "internalType": "bool",
          "name": "rejected",
          "type": "bool"
        }
      ],
      "stateMutability": "view",
      "type": "function"
    },
    {
      "inputs": [
        {
          "internalType": "uint256",
          "name": "",
          "type": "uint256"
        }
      ],
      "name": "grants",
      "outputs": [
        {
          "internalType": "uint256",
          "name": "id",
          "type": "uint256"
        },
        {
          "internalType": "address",
          "name": "ngo",
          "type": "address"
        },
        {
          "internalType": "string",
          "name": "title",
          "type": "string"
        },
        {
          "internalType": "string",
          "name": "description",
          "type": "string"
        },
        {
          "internalType": "uint256",
          "name": "amount",
          "type": "uint256"
        },
        {
          "internalType": "uint256",
          "name": "deadline",
          "type": "uint256"
        },
        {
          "internalType": "bool",
          "name": "isActive",
          "type": "bool"
        },
        {
          "internalType": "uint256",
          "name": "totalApplications",
          "type": "uint256"
        }
      ],
      "stateMutability": "view",
      "type": "function"
    },
    {
      "inputs": [
        {
          "internalType": "uint256",
          "name": "",
          "type": "uint256"
        },
        {
          "internalType": "address",
          "name": "",
          "type": "address"
        }
      ],
      "name": "hasApplied",
      "outputs": [
        {
          "internalType": "bool",
          "name": "",
          "type": "bool"
        }
      ],
      "stateMutability": "view",
      "type": "function"
    },
    {
      "inputs": [],
      "name": "nextGrantId",
      "outputs": [
        {
          "internalType": "uint256",
          "name": "",
          "type": "uint256"
        }
      ],
      "stateMutability": "view",
      "type": "function"
    },
    {
      "inputs": [
        {
          "internalType": "uint256",
          "name": "grantId",
          "type": "uint256"
        },
        {
          "internalType": "uint256",
          "name": "applicationIndex",
          "type": "uint256"
        }
      ],
      "name": "rejectApplication",
      "outputs": [],
      "stateMutability": "nonpayable",
      "type": "function"
    }
  ],
  "bytecode": "0x60a060405234801561001057600080fd5b5060405161176f38038061176f83398101604081905261002f9161009a565b6001600160a01b0381166100895760405162461bcd60e51b815260206004820152601660248201527f496e76616c69642061636365737320636f6e74726f6c00000000000000000000604482015260640160405180910390fd5b6001600160a01b03166080526100ca565b6000602082840312156100ac57600080fd5b81516001600160a01b03811681146100c357600080fd5b9392505050565b6080516116846100eb6000396000818160e30152610c4901526116846000f3fe608060405234801561001057600080fd5b50600436106100a95760003560e01c8063a39bf54411610071578063a39bf5441461016b578063ae267c4f146101a9578063bb8b3ea9146101bc578063bc8c937d146101d3578063c3af6aa4146101f3578063e045d3d11461020657600080fd5b80630c0debea146100ae57806313007d55146100de578063158c75e51461011d5780634633f488146101325780636ec6080414610147575b600080fd5b6100c16100bc366004611012565b610219565b6040516100d5989796959493929190611071565b60405180910390f35b6101057f000000000000000000000000000000000000000000000000000000000000000081565b6040516001600160a01b0390911681526020016100d5565b61012561037c565b6040516100d591906110d8565b6101456101403660046111b6565b6105f2565b005b61015a6101553660046111b6565b61075e565b6040516100d59594939291906111d8565b61019961017936600461121b565b600360209081526000928352604080842090915290825290205460ff1681565b60405190151581526020016100d5565b6101456101b73660046112a0565b610847565b6101c560005481565b6040519081526020016100d5565b6101e66101e1366004611012565b610aeb565b6040516100d591906112f3565b610145610201366004611389565b610c34565b6101456102143660046111b6565b610ead565b60016020819052600091825260409091208054918101546002820180546001600160a01b03909216929161024c90611407565b80601f016020809104026020016040519081016040528092919081815260200182805461027890611407565b80156102c55780601f1061029a576101008083540402835291602001916102c5565b820191906000526020600020905b8154815290600101906020018083116102a857829003601f168201915b5050505050908060030180546102da90611407565b80601f016020809104026020016040519081016040528092919081815260200182805461030690611407565b80156103535780601f1061032857610100808354040283529160200191610353565b820191906000526020600020905b81548152906001019060200180831161033657829003601f168201915b5050506004840154600585015460068601546007909601549495919490935060ff909116915088565b60606000805467ffffffffffffffff81111561039a5761039a61143b565b60405190808252806020026020018201604052801561041e57816020015b61040b6040518061010001604052806000815260200160006001600160a01b0316815260200160608152602001606081526020016000815260200160008152602001600015158152602001600081525090565b8152602001906001900390816103b85790505b50905060005b6000548110156105ec5760008181526001602081815260409283902083516101008101855281548152928101546001600160a01b031691830191909152600281018054929391929184019161047890611407565b80601f01602080910402602001604051908101604052809291908181526020018280546104a490611407565b80156104f15780601f106104c6576101008083540402835291602001916104f1565b820191906000526020600020905b8154815290600101906020018083116104d457829003601f168201915b5050505050815260200160038201805461050a90611407565b80601f016020809104026020016040519081016040528092919081815260200182805461053690611407565b80156105835780601f1061055857610100808354040283529160200191610583565b820191906000526020600020905b81548152906001019060200180831161056657829003601f168201915b50505091835250506004820154602082015260058201546040820152600682015460ff161515606082015260079091015460809091015282518390839081106105ce576105ce611451565b602002602001018190525080806105e49061147d565b915050610424565b50919050565b600054821061061c5760405162461bcd60e51b815260040161061390611496565b60405180910390fd5b6000828152600160208190526040909120908101546001600160a01b0316331461067a5760405162461bcd60e51b815260206004820152600f60248201526e2737ba1033b930b73a1037bbb732b960891b6044820152606401610613565b600083815260026020526040812080548490811061069a5761069a611451565b60009182526020909120600490910201600381015490915060ff161580156106cc57506003810154610100900460ff16155b6107105760405162461bcd60e51b81526020600482015260156024820152744465636973696f6e20616c7265616479206d61646560581b6044820152606401610613565b60038101805460ff1916600117905580546040516001600160a01b039091169085907fd4829f45099f9fa7e85153a0ea413a85dadd5d09c3ff1baa69160e014c86e4ea90600090a350505050565b6002602052816000526040600020818154811061077a57600080fd5b6000918252602090912060049091020180546001820180546001600160a01b0390921694509192506107ab90611407565b80601f01602080910402602001604051908101604052809291908181526020018280546107d790611407565b80156108245780601f106107f957610100808354040283529160200191610824565b820191906000526020600020905b81548152906001019060200180831161080757829003601f168201915b50505050600283015460039093015491929160ff80821692506101009091041685565b60005484106108685760405162461bcd60e51b815260040161061390611496565b60008481526001602052604090206006015460ff166108bf5760405162461bcd60e51b81526020600482015260136024820152724772616e74206973206e6f742061637469766560681b6044820152606401610613565b60008481526001602052604090206005015442106109175760405162461bcd60e51b815260206004820152601560248201527411dc985b9d08191958591b1a5b99481c185cdcd959605a1b6044820152606401610613565b600084815260036020908152604080832033845290915290205460ff16156109735760405162461bcd60e51b815260206004820152600f60248201526e105b1c9958591e48185c1c1b1a5959608a1b6044820152606401610613565b600260008581526020019081526020016000206040518060a00160405280336001600160a01b0316815260200185858080601f0160208091040260200160405190810160405280939291908181526020018383808284376000920182905250938552505050602080830186905260408301829052606090920181905283546001808201865594825290829020835160049092020180546001600160a01b0319166001600160a01b03909216919091178155908201519192909190820190610a3a9082611513565b50604082810151600283015560608301516003928301805460809095015115156101000261ff00199215159290921661ffff199095169490941717909255600086815260209182528281203382528252828120805460ff19166001908117909155878252909152908120600701805491610ab38361147d565b9091555050604051339085907f394b2f46e841d2b670718e98a15dfb76853abc5a8761449c74e9cba62d90152190600090a350505050565b606060026000838152602001908152602001600020805480602002602001604051908101604052809291908181526020016000905b82821015610c295760008481526020908190206040805160a081019091526004850290910180546001600160a01b031682526001810180549293919291840191610b6990611407565b80601f0160208091040260200160405190810160405280929190818152602001828054610b9590611407565b8015610be25780601f10610bb757610100808354040283529160200191610be2565b820191906000526020600020905b815481529060010190602001808311610bc557829003601f168201915b5050509183525050600282015460208083019190915260039092015460ff808216151560408401526101009091041615156060909101529082526001929092019101610b20565b505050509050919050565b60405163c1a358f160e01b81523360048201527f00000000000000000000000000000000000000000000000000000000000000006001600160a01b03169063c1a358f190602401602060405180830381865afa158015610c98573d6000803e3d6000fd5b505050506040513d601f19601f82011682018060405250810190610cbc91906115d3565b610cfd5760405162461bcd60e51b81526020600482015260126024820152714e6f7420617574686f72697a6564204e474f60701b6044820152606401610613565b600080548180610d0c8361147d565b919050559050604051806101000160405280828152602001336001600160a01b0316815260200188888080601f016020809104026020016040519081016040528093929190818152602001838380828437600092019190915250505090825250604080516020601f89018190048102820181019092528781529181019190889088908190840183828082843760009201919091525050509082525060208101859052604001610dbb84426115fc565b81526001602080830182905260006040938401819052858152828252839020845181559084015191810180546001600160a01b0319166001600160a01b0390931692909217909155908201516002820190610e169082611513565b5060608201516003820190610e2b9082611513565b506080820151600482015560a0820151600582015560c082015160068201805460ff191691151591909117905560e090910151600790910155604051339082907fba6c81353b832121645c594b7d98b074a38f94a967391254807594a72f84bdb490610e9c908b908b908990611615565b60405180910390a350505050505050565b6000548210610ece5760405162461bcd60e51b815260040161061390611496565b6000828152600160208190526040909120908101546001600160a01b03163314610f2c5760405162461bcd60e51b815260206004820152600f60248201526e2737ba1033b930b73a1037bbb732b960891b6044820152606401610613565b6000838152600260205260408120805484908110610f4c57610f4c611451565b60009182526020909120600490910201600381015490915060ff16158015610f7e57506003810154610100900460ff16155b610fc25760405162461bcd60e51b81526020600482015260156024820152744465636973696f6e20616c7265616479206d61646560581b6044820152606401610613565b60038101805461ff00191661010017905580546040516001600160a01b039091169085907fd88c67b75067601e318509cc4cd19649c6e5b2af3396e2152bd8faf039f624a190600090a350505050565b60006020828403121561102457600080fd5b5035919050565b6000815180845260005b8181101561105157602081850181015186830182015201611035565b506000602082860101526020601f19601f83011685010191505092915050565b8881526001600160a01b03881660208201526101006040820181905260009061109c8382018a61102b565b905082810360608401526110b0818961102b565b6080840197909752505060a081019390935290151560c083015260e090910152949350505050565b60006020808301818452808551808352604092508286019150828160051b87010184880160005b838110156111a857888303603f19018552815180518452878101516001600160a01b03168885015286810151610100888601819052906111418287018261102b565b9150506060808301518683038288015261115b838261102b565b92505050608080830151818701525060a080830151818701525060c0808301516111888288018215159052565b505060e091820151949091019390935293860193908601906001016110ff565b509098975050505050505050565b600080604083850312156111c957600080fd5b50508035926020909101359150565b6001600160a01b038616815260a0602082018190526000906111fc9083018761102b565b6040830195909552509115156060830152151560809091015292915050565b6000806040838503121561122e57600080fd5b8235915060208301356001600160a01b038116811461124c57600080fd5b809150509250929050565b60008083601f84011261126957600080fd5b50813567ffffffffffffffff81111561128157600080fd5b60208301915083602082850101111561129957600080fd5b9250929050565b600080600080606085870312156112b657600080fd5b84359350602085013567ffffffffffffffff8111156112d457600080fd5b6112e087828801611257565b9598909750949560400135949350505050565b60006020808301818452808551808352604092508286019150828160051b87010184880160005b838110156111a857888303603f19018552815180516001600160a01b031684528781015160a0898601819052906113538287018261102b565b838a0151878b0152606080850151151590880152608093840151151593909601929092525050938601939086019060010161131a565b600080600080600080608087890312156113a257600080fd5b863567ffffffffffffffff808211156113ba57600080fd5b6113c68a838b01611257565b909850965060208901359150808211156113df57600080fd5b506113ec89828a01611257565b979a9699509760408101359660609091013595509350505050565b600181811c9082168061141b57607f821691505b6020821081036105ec57634e487b7160e01b600052602260045260246000fd5b634e487b7160e01b600052604160045260246000fd5b634e487b7160e01b600052603260045260246000fd5b634e487b7160e01b600052601160045260246000fd5b60006001820161148f5761148f611467565b5060010190565b60208082526014908201527311dc985b9d08191bd95cc81b9bdd08195e1a5cdd60621b604082015260600190565b601f82111561150e57600081815260208120601f850160051c810160208610156114eb5750805b601f850160051c820191505b8181101561150a578281556001016114f7565b5050505b505050565b815167ffffffffffffffff81111561152d5761152d61143b565b6115418161153b8454611407565b846114c4565b602080601f831160018114611576576000841561155e5750858301515b600019600386901b1c1916600185901b17855561150a565b600085815260208120601f198616915b828110156115a557888601518255948401946001909101908401611586565b50858210156115c35787850151600019600388901b60f8161c191681555b5050505050600190811b01905550565b6000602082840312156115e557600080fd5b815180151581146115f557600080fd5b9392505050565b8082018082111561160f5761160f611467565b92915050565b604081528260408201528284606083013760006060848301015260006060601f19601f860116830101905082602083015294935050505056fea26469706673582212201be454c5d53d67029e1197fe7e5d2872632d4d2ecb92351af9e40cf54f842d8364736f6c63430008140033",
  "linkReferences": {},
  "deployedLinkReferences": {}
}