{
  "_format": "hh-sol-artifact-1",
  "contractName": "NGORegistryDemo",
  "sourceName": "contracts/NGORegistryDemo.sol",
  "abi": [
    {
      "inputs": [
        {
          "internalType": "address",
          "name": "_verifier",
          "type": "address"
        }
      ],
      "stateMutability": "nonpayable",
      "type": "constructor"
    },
    {
      "anonymous": false,
      "inputs": [
        {
          "indexed": true,
          "internalType": "address",
          "name": "ngoAddress",
          "type": "address"
        },
        {
          "indexed": false,
          "internalType": "string",
          "name": "name",
          "type": "string"
        },
        {
          "indexed": false,
          "internalType": "bytes32",
          "name": "proofHash",
          "type": "bytes32"
        },
        {
          "indexed": false,
          "internalType": "uint256",
          "name": "timestamp",
          "type": "uint256"
        }
      ],
      "name": "NGORegistered",
      "type": "event"
    },
    {
      "inputs": [],
      "name": "getAllNGOs",
      "outputs": [
        {
          "internalType": "address[]",
          "name": "",
          "type": "address[]"
        }
      ],
      "stateMutability": "view",
      "type": "function"
    },
    {
      "inputs": [],
      "name": "getNGOCount",
      "outputs": [
        {
          "internalType": "uint256",
          "name": "",
          "type": "uint256"
        }
      ],
      "stateMutability": "view",
      "type": "function"
    },
    {
      "inputs": [
        {
          "internalType": "address",
          "name": "ngo",
          "type": "address"
        }
      ],
      "name": "getNGOInfo",
      "outputs": [
        {
          "components": [
            {
              "internalType": "string",
              "name": "name",
              "type": "string"
            },
            {
              "internalType": "bool",
              "name": "verified",
              "type": "bool"
            },
            {
              "internalType": "bytes32",
              "name": "proofHash",
              "type": "bytes32"
            },
            {
              "internalType": "uint256",
              "name": "verifiedAt",
              "type": "uint256"
            }
          ],
          "internalType": "struct NGORegistryDemo.NGO",
          "name": "",
          "type": "tuple"
        }
      ],
      "stateMutability": "view",
      "type": "function"
    },
    {
      "inputs": [
        {
          "internalType": "address",
          "name": "ngo",
          "type": "address"
        }
      ],
      "name": "isVerifiedNGO",
      "outputs": [
        {
          "internalType": "bool",
          "name": "",
          "type": "bool"
        }
      ],
      "stateMutability": "view",
      "type": "function"
    },
    {
      "inputs": [
        {
          "internalType": "uint256",
          "name": "",
          "type": "uint256"
        }
      ],
      "name": "ngoList",
      "outputs": [
        {
          "internalType": "address",
          "name": "",
          "type": "address"
        }
      ],
      "stateMutability": "view",
      "type": "function"
    },
    {
      "inputs": [
        {
          "internalType": "address",
          "name": "",
          "type": "address"
        }
      ],
      "name": "ngos",
      "outputs": [
        {
          "internalType": "string",
          "name": "name",
          "type": "string"
        },
        {
          "internalType": "bool",
          "name": "verified",
          "type": "bool"
        },
        {
          "internalType": "bytes32",
          "name": "proofHash",
          "type": "bytes32"
        },
        {
          "internalType": "uint256",
          "name": "verifiedAt",
          "type": "uint256"
        }
      ],
      "stateMutability": "view",
      "type": "function"
    },
    {
      "inputs": [
        {
          "components": [
            {
              "internalType": "bytes",
              "name": "proof",
              "type": "bytes"
            },
            {
              "internalType": "bytes",
              "name": "extraData",
              "type": "bytes"
            }
          ],
          "internalType": "struct NGORegistryDemo.AuthData",
          "name": "authData",
          "type": "tuple"
        }
      ],
      "name": "registerNGO",
      "outputs": [],
      "stateMutability": "nonpayable",
      "type": "function"
    },
    {
      "inputs": [],
      "name": "verifier",
      "outputs": [
        {
          "internalType": "contract KRNLVerifier",
          "name": "",
          "type": "address"
        }
      ],
      "stateMutability": "view",
      "type": "function"
    }
  ],
  "bytecode": "0x608060405234801561001057600080fd5b50604051610c14380380610c1483398101604081905261002f916100ae565b6001600160a01b0381166100895760405162461bcd60e51b815260206004820152601860248201527f496e76616c696420766572696669657220616464726573730000000000000000604482015260640160405180910390fd5b600080546001600160a01b0319166001600160a01b03929092169190911790556100de565b6000602082840312156100c057600080fd5b81516001600160a01b03811681146100d757600080fd5b9392505050565b610b27806100ed6000396000f3fe608060405234801561001057600080fd5b50600436106100885760003560e01c8063967f89821161005b578063967f8982146100f85780639ef120e81461010b578063d4e319fc1461014b578063e6f7d11e1461016b57600080fd5b80632b7ac3f31461008d5780635a906e66146100bd5780636a6bbbf7146100d257806387b5a2dd146100e3575b600080fd5b6000546100a0906001600160a01b031681565b6040516001600160a01b0390911681526020015b60405180910390f35b6100d06100cb36600461066d565b61018e565b005b6002546040519081526020016100b4565b6100eb610429565b6040516100b491906106af565b6100a06101063660046106fc565b61048b565b61013b610119366004610715565b6001600160a01b03166000908152600160208190526040909120015460ff1690565b60405190151581526020016100b4565b61015e610159366004610715565b6104b5565b6040516100b49190610784565b61017e610179366004610715565b6105b7565b6040516100b494939291906107cc565b600061019d60208301836107fb565b8101906101aa919061085f565b905060008151116101f25760405162461bcd60e51b815260206004820152600d60248201526c13985b59481c995c5d5a5c9959609a1b60448201526064015b60405180910390fd5b336000908152600160208190526040909120015460ff161561024b5760405162461bcd60e51b8152602060048201526012602482015271105b1c9958591e481c9959da5cdd195c995960721b60448201526064016101e9565b6000546001600160a01b0316634b7926fe61026684806107fb565b336040518463ffffffff1660e01b815260040161028593929190610910565b6020604051808303816000875af11580156102a4573d6000803e3d6000fd5b505050506040513d601f19601f820116820180604052508101906102c89190610951565b6103095760405162461bcd60e51b815260206004820152601260248201527124b73b30b634b21025a9272610383937b7b360711b60448201526064016101e9565b600061031583806107fb565b604051610323929190610973565b604080519182900382206080830182528483526001602080850182905284840183905242606086015233600090815291905291909120825191935090819061036b9082610a0c565b5060208201516001828101805460ff191692151592909217909155604080840151600280850191909155606090940151600390930192909255825490810183556000929092527f405787fa12a823e0f2b7631cc41b3ba8828b3321ca811111fa75cd3aa3bb5ace9091018054336001600160a01b0319909116811790915590517fc29c7ac5d2de48508fe3280d2be27ac6dbe9f060bfd2736641d41d450bfc15b39061041c90859085904290610acc565b60405180910390a2505050565b6060600280548060200260200160405190810160405280929190818152602001828054801561048157602002820191906000526020600020905b81546001600160a01b03168152600190910190602001808311610463575b5050505050905090565b6002818154811061049b57600080fd5b6000918252602090912001546001600160a01b0316905081565b6040805160808101825260608082526000602083018190529282018390528101919091526001600160a01b0382166000908152600160205260409081902081516080810190925280548290829061050b90610983565b80601f016020809104026020016040519081016040528092919081815260200182805461053790610983565b80156105845780601f1061055957610100808354040283529160200191610584565b820191906000526020600020905b81548152906001019060200180831161056757829003601f168201915b5050509183525050600182015460ff16151560208201526002820154604082015260039091015460609091015292915050565b6001602052600090815260409020805481906105d290610983565b80601f01602080910402602001604051908101604052809291908181526020018280546105fe90610983565b801561064b5780601f106106205761010080835404028352916020019161064b565b820191906000526020600020905b81548152906001019060200180831161062e57829003601f168201915b5050505060018301546002840154600390940154929360ff9091169290915084565b60006020828403121561067f57600080fd5b813567ffffffffffffffff81111561069657600080fd5b8201604081850312156106a857600080fd5b9392505050565b6020808252825182820181905260009190848201906040850190845b818110156106f05783516001600160a01b0316835292840192918401916001016106cb565b50909695505050505050565b60006020828403121561070e57600080fd5b5035919050565b60006020828403121561072757600080fd5b81356001600160a01b03811681146106a857600080fd5b6000815180845260005b8181101561076457602081850181015186830182015201610748565b506000602082860101526020601f19601f83011685010191505092915050565b6020815260008251608060208401526107a060a084018261073e565b905060208401511515604084015260408401516060840152606084015160808401528091505092915050565b6080815260006107df608083018761073e565b9415156020830152506040810192909252606090910152919050565b6000808335601e1984360301811261081257600080fd5b83018035915067ffffffffffffffff82111561082d57600080fd5b60200191503681900382131561084257600080fd5b9250929050565b634e487b7160e01b600052604160045260246000fd5b60006020828403121561087157600080fd5b813567ffffffffffffffff8082111561088957600080fd5b818401915084601f83011261089d57600080fd5b8135818111156108af576108af610849565b604051601f8201601f19908116603f011681019083821181831017156108d7576108d7610849565b816040528281528760208487010111156108f057600080fd5b826020860160208301376000928101602001929092525095945050505050565b6040815282604082015282846060830137600060608483018101919091526001600160a01b03929092166020820152601f909201601f191690910101919050565b60006020828403121561096357600080fd5b815180151581146106a857600080fd5b8183823760009101908152919050565b600181811c9082168061099757607f821691505b6020821081036109b757634e487b7160e01b600052602260045260246000fd5b50919050565b601f821115610a0757600081815260208120601f850160051c810160208610156109e45750805b601f850160051c820191505b81811015610a03578281556001016109f0565b5050505b505050565b815167ffffffffffffffff811115610a2657610a26610849565b610a3a81610a348454610983565b846109bd565b602080601f831160018114610a6f5760008415610a575750858301515b600019600386901b1c1916600185901b178555610a03565b600085815260208120601f198616915b82811015610a9e57888601518255948401946001909101908401610a7f565b5085821015610abc5787850151600019600388901b60f8161c191681555b5050505050600190811b01905550565b606081526000610adf606083018661073e565b6020830194909452506040015291905056fea2646970667358221220b33049819c753243f1df3aec022ecd81e4577f69cb9c237459aa34d9cfe3ac9f64736f6c63430008140033",
  "linkReferences": {},
  "deployedLinkReferences": {}
}