{
  "_format": "hh-sol-artifact-1",
  "contractName": "NGOAccessControl",
  "sourceName": "contracts/NGOAccessControl.sol",
  "abi": [
    {
      "inputs": [
        {
          "internalType": "address",
          "name": "_ngoRegistry",
          "type": "address"
        }
      ],
      "stateMutability": "nonpayable",
      "type": "constructor"
    },
    {
      "anonymous": false,
      "inputs": [
        {
          "indexed": true,
          "internalType": "address",
          "name": "user",
          "type": "address"
        },
        {
          "indexed": false,
          "internalType": "enum NGOAccessControl.Role",
          "name": "role",
          "type": "uint8"
        }
      ],
      "name": "RoleGranted",
      "type": "event"
    },
    {
      "anonymous": false,
      "inputs": [
        {
          "indexed": true,
          "internalType": "address",
          "name": "user",
          "type": "address"
        }
      ],
      "name": "RoleRevoked",
      "type": "event"
    },
    {
      "inputs": [
        {
          "internalType": "address",
          "name": "account",
          "type": "address"
        },
        {
          "internalType": "enum NGOAccessControl.Role",
          "name": "role",
          "type": "uint8"
        }
      ],
      "name": "grantRole",
      "outputs": [],
      "stateMutability": "nonpayable",
      "type": "function"
    },
    {
      "inputs": [
        {
          "internalType": "address",
          "name": "account",
          "type": "address"
        }
      ],
      "name": "isAuthorizedNGO",
      "outputs": [
        {
          "internalType": "bool",
          "name": "",
          "type": "bool"
        }
      ],
      "stateMutability": "view",
      "type": "function"
    },
    {
      "inputs": [],
      "name": "ngoRegistry",
      "outputs": [
        {
          "internalType": "contract NGORegistryDemo",
          "name": "",
          "type": "address"
        }
      ],
      "stateMutability": "view",
      "type": "function"
    },
    {
      "inputs": [],
      "name": "owner",
      "outputs": [
        {
          "internalType": "address",
          "name": "",
          "type": "address"
        }
      ],
      "stateMutability": "view",
      "type": "function"
    },
    {
      "inputs": [],
      "name": "registerAsNGO",
      "outputs": [],
      "stateMutability": "nonpayable",
      "type": "function"
    },
    {
      "inputs": [
        {
          "internalType": "address",
          "name": "account",
          "type": "address"
        }
      ],
      "name": "revokeRole",
      "outputs": [],
      "stateMutability": "nonpayable",
      "type": "function"
    },
    {
      "inputs": [
        {
          "internalType": "address",
          "name": "newOwner",
          "type": "address"
        }
      ],
      "name": "transferOwnership",
      "outputs": [],
      "stateMutability": "nonpayable",
      "type": "function"
    },
    {
      "inputs": [
        {
          "internalType": "address",
          "name": "",
          "type": "address"
        }
      ],
      "name": "userRoles",
      "outputs": [
        {
          "internalType": "enum NGOAccessControl.Role",
          "name": "",
          "type": "uint8"
        }
      ],
      "stateMutability": "view",
      "type": "function"
    }
  ],
  "bytecode": "0x60a060405234801561001057600080fd5b5060405161076738038061076783398101604081905261002f916100b8565b6001600160a01b03811661007c5760405162461bcd60e51b815260206004820152601060248201526f496e76616c696420726567697374727960801b604482015260640160405180910390fd5b6001600160a01b031660805260008054336001600160a01b0319909116811782558152600160205260409020805460ff191660031790556100e8565b6000602082840312156100ca57600080fd5b81516001600160a01b03811681146100e157600080fd5b9392505050565b6080516106576101106000396000818160e0015281816102c8015261038801526106576000f3fe608060405234801561001057600080fd5b50600436106100885760003560e01c80638da5cb5b1161005b5780638da5cb5b1461012d578063c1a358f114610140578063e1bfcb2f14610163578063f2fde38b1461016b57600080fd5b80633e8402361461008d57806374d5e100146100a257806377f2e8f4146100db57806380e52e3f1461011a575b600080fd5b6100a061009b366004610540565b61017e565b005b6100c56100b036600461057b565b60016020526000908152604090205460ff1681565b6040516100d291906105b3565b60405180910390f35b6101027f000000000000000000000000000000000000000000000000000000000000000081565b6040516001600160a01b0390911681526020016100d2565b6100a061012836600461057b565b610233565b600054610102906001600160a01b031681565b61015361014e36600461057b565b6102a6565b60405190151581526020016100d2565b6100a0610373565b6100a061017936600461057b565b610492565b6000546001600160a01b031633146101b15760405162461bcd60e51b81526004016101a8906105db565b60405180910390fd5b6001600160a01b03821660009081526001602081905260409091208054839260ff19909116908360038111156101e9576101e961059d565b0217905550816001600160a01b03167faa259565575c834bc07e74dca784b4071676133ac78513b431afb6ee7edae1218260405161022791906105b3565b60405180910390a25050565b6000546001600160a01b0316331461025d5760405162461bcd60e51b81526004016101a8906105db565b6001600160a01b038116600081815260016020526040808220805460ff19169055517f6107a4a5447a4208ba14e3ec240bccf0a93828124ccf501af04601031070b1839190a250565b6040516313de241d60e31b81526001600160a01b0382811660048301526000917f000000000000000000000000000000000000000000000000000000000000000090911690639ef120e890602401602060405180830381865afa158015610311573d6000803e3d6000fd5b505050506040513d601f19601f8201168201806040525081019061033591906105ff565b801561036d575060016001600160a01b03831660009081526001602052604090205460ff16600381111561036b5761036b61059d565b145b92915050565b6040516313de241d60e31b81523360048201527f00000000000000000000000000000000000000000000000000000000000000006001600160a01b031690639ef120e890602401602060405180830381865afa1580156103d7573d6000803e3d6000fd5b505050506040513d601f19601f820116820180604052508101906103fb91906105ff565b61043e5760405162461bcd60e51b8152602060048201526014602482015273139bdd081d995c9a599a595908189e4812d4939360621b60448201526064016101a8565b33600081815260016020819052604091829020805460ff19168217905590517faa259565575c834bc07e74dca784b4071676133ac78513b431afb6ee7edae12191610488916105b3565b60405180910390a2565b6000546001600160a01b031633146104bc5760405162461bcd60e51b81526004016101a8906105db565b6001600160a01b0381166105025760405162461bcd60e51b815260206004820152600d60248201526c24b73b30b634b21037bbb732b960991b60448201526064016101a8565b600080546001600160a01b0319166001600160a01b0392909216919091179055565b80356001600160a01b038116811461053b57600080fd5b919050565b6000806040838503121561055357600080fd5b61055c83610524565b915060208301356004811061057057600080fd5b809150509250929050565b60006020828403121561058d57600080fd5b61059682610524565b9392505050565b634e487b7160e01b600052602160045260246000fd5b60208101600483106105d557634e487b7160e01b600052602160045260246000fd5b91905290565b6020808252600a908201526927b7363c9037bbb732b960b11b604082015260600190565b60006020828403121561061157600080fd5b8151801515811461059657600080fdfea26469706673582212201904a0b410f9225f94b5457f55297cf397d69aee925951d4d7b890344ebb9e9c64736f6c63430008140033",
  "linkReferences": {},
  "deployedLinkReferences": {}
}